{
  "_format": "hh-sol-artifact-1",
  "contractName": "TransferToken",
  "sourceName": "contracts/TransferToken.sol",
  "abi": [
    {
      "inputs": [
        {
          "internalType": "contract MinimalForwarder",
          "name": "forwarder",
          "type": "address"
        }
      ],
      "stateMutability": "nonpayable",
      "type": "constructor"
    },
    {
      "inputs": [
        {
          "internalType": "address",
          "name": "forwarder",
          "type": "address"
        }
      ],
      "name": "isTrustedForwarder",
      "outputs": [
        {
          "internalType": "bool",
          "name": "",
          "type": "bool"
        }
      ],
      "stateMutability": "view",
      "type": "function"
    },
    {
      "inputs": [
        {
          "internalType": "address",
          "name": "token",
          "type": "address"
        },
        {
          "internalType": "address",
          "name": "to",
          "type": "address"
        },
        {
          "internalType": "uint256",
          "name": "amount",
          "type": "uint256"
        }
      ],
      "name": "transfer",
      "outputs": [],
      "stateMutability": "nonpayable",
      "type": "function"
    }
  ],
  "bytecode": "0x60a060405234801561001057600080fd5b5060405161067d38038061067d833981810160405281019061003291906100e3565b808073ffffffffffffffffffffffffffffffffffffffff1660808173ffffffffffffffffffffffffffffffffffffffff16815250505050610110565b600080fd5b600073ffffffffffffffffffffffffffffffffffffffff82169050919050565b600061009e82610073565b9050919050565b60006100b082610093565b9050919050565b6100c0816100a5565b81146100cb57600080fd5b50565b6000815190506100dd816100b7565b92915050565b6000602082840312156100f9576100f861006e565b5b6000610107848285016100ce565b91505092915050565b60805161055361012a6000396000608b01526105536000f3fe608060405234801561001057600080fd5b50600436106100365760003560e01c8063572b6c051461003b578063beabacc81461006b575b600080fd5b610055600480360381019061005091906102dd565b610087565b6040516100629190610325565b60405180910390f35b61008560048036038101906100809190610376565b6100df565b005b60007f000000000000000000000000000000000000000000000000000000000000000073ffffffffffffffffffffffffffffffffffffffff168273ffffffffffffffffffffffffffffffffffffffff16149050919050565b60008390508073ffffffffffffffffffffffffffffffffffffffff1663095ea7b330846040518363ffffffff1660e01b815260040161011f9291906103e7565b6020604051808303816000875af115801561013e573d6000803e3d6000fd5b505050506040513d601f19601f82011682018060405250810190610162919061043c565b508073ffffffffffffffffffffffffffffffffffffffff166323b872dd61018761022f565b85856040518463ffffffff1660e01b81526004016101a793929190610469565b6020604051808303816000875af11580156101c6573d6000803e3d6000fd5b505050506040513d601f19601f820116820180604052508101906101ea919061043c565b610229576040517f08c379a0000000000000000000000000000000000000000000000000000000008152600401610220906104fd565b60405180910390fd5b50505050565b600061023a33610087565b801561024b57506014600036905010155b1561025f57601436033560601c905061026e565b610267610272565b905061026f565b5b90565b600033905090565b600080fd5b600073ffffffffffffffffffffffffffffffffffffffff82169050919050565b60006102aa8261027f565b9050919050565b6102ba8161029f565b81146102c557600080fd5b50565b6000813590506102d7816102b1565b92915050565b6000602082840312156102f3576102f261027a565b5b6000610301848285016102c8565b91505092915050565b60008115159050919050565b61031f8161030a565b82525050565b600060208201905061033a6000830184610316565b92915050565b6000819050919050565b61035381610340565b811461035e57600080fd5b50565b6000813590506103708161034a565b92915050565b60008060006060848603121561038f5761038e61027a565b5b600061039d868287016102c8565b93505060206103ae868287016102c8565b92505060406103bf86828701610361565b9150509250925092565b6103d28161029f565b82525050565b6103e181610340565b82525050565b60006040820190506103fc60008301856103c9565b61040960208301846103d8565b9392505050565b6104198161030a565b811461042457600080fd5b50565b60008151905061043681610410565b92915050565b6000602082840312156104525761045161027a565b5b600061046084828501610427565b91505092915050565b600060608201905061047e60008301866103c9565b61048b60208301856103c9565b61049860408301846103d8565b949350505050565b600082825260208201905092915050565b7f5472616e73666572546f6b656e3a207472616e73666572206661696c65640000600082015250565b60006104e7601e836104a0565b91506104f2826104b1565b602082019050919050565b60006020820190508181036000830152610516816104da565b905091905056fea2646970667358221220e7f6359210a26bff320f500fcae13c7f98c0876a079826f6deeeaf7a8164d55764736f6c63430008120033",
  "linkReferences": {},
  "deployedLinkReferences": {}
}